S02100006C6573736F6E5F747275655F747261666669635F6C696768742E737265639B
S113000009C021C020C039C01EC01DC01CC01BC0F7
S11300101AC019C011241FBECFE9CDBF10E0A0E65D
S1130020B0E0E2E1F1E002C005900D92A036B10724
S1130030D9F710E0A0E6B0E001C01D92A136B107E7
S1130040E1F732D064C0DCCF87B3836087BB089507
S1130050C098C19A0895C198C09A089581E0B29950
S113006080E00895C29A089583B7836083BF89B7F7
S1130070826089BF8AE682BF08951F920F920FB6ED
S11300800F9211248F9380916000882329F080912E
S113009060008150809360008AE682BF8F910F9048
S11300A00FBE0F901F901895CFDFDCDFDDDF789453
S11300B0C0E00F2EFAEFEF2EF02DFF24F3940DE79E
S11300C013E0DD24D2E003C0CD2F01C0CD2DC1301B
S11300D059F0C13028F0C23081F0C330C1F712C0EA
S11300E0E0926000CF2DF3CF80916000882309F463
S11300F0CD2FB4DF882341F7EACFADDF0093600052
S1130100C12FE5CF80916000882301F3E0CFF894FC
S1050110FFCF1B
S9030000FC
